{
  "address": "0x66495B079629c104C89760D6573EE16De11d06bc",
  "abi": [
    {
      "inputs": [
        {
          "internalType": "contract VJinToken",
          "name": "_vjin",
          "type": "address"
        },
        {
          "internalType": "address",
          "name": "_devaddr",
          "type": "address"
        },
        {
          "internalType": "uint256",
          "name": "_vjinPerBlock",
          "type": "uint256"
        },
        {
          "internalType": "uint256",
          "name": "_startBlock",
          "type": "uint256"
        },
        {
          "internalType": "uint256",
          "name": "_bonusEndBlock",
          "type": "uint256"
        }
      ],
      "stateMutability": "nonpayable",
      "type": "constructor"
    },
    {
      "anonymous": false,
      "inputs": [
        {
          "indexed": true,
          "internalType": "address",
          "name": "user",
          "type": "address"
        },
        {
          "indexed": true,
          "internalType": "uint256",
          "name": "pid",
          "type": "uint256"
        },
        {
          "indexed": false,
          "internalType": "uint256",
          "name": "amount",
          "type": "uint256"
        }
      ],
      "name": "Deposit",
      "type": "event"
    },
    {
      "anonymous": false,
      "inputs": [
        {
          "indexed": true,
          "internalType": "address",
          "name": "user",
          "type": "address"
        },
        {
          "indexed": true,
          "internalType": "uint256",
          "name": "pid",
          "type": "uint256"
        },
        {
          "indexed": false,
          "internalType": "uint256",
          "name": "amount",
          "type": "uint256"
        }
      ],
      "name": "EmergencyWithdraw",
      "type": "event"
    },
    {
      "anonymous": false,
      "inputs": [
        {
          "indexed": true,
          "internalType": "address",
          "name": "previousOwner",
          "type": "address"
        },
        {
          "indexed": true,
          "internalType": "address",
          "name": "newOwner",
          "type": "address"
        }
      ],
      "name": "OwnershipTransferred",
      "type": "event"
    },
    {
      "anonymous": false,
      "inputs": [
        {
          "indexed": true,
          "internalType": "address",
          "name": "user",
          "type": "address"
        },
        {
          "indexed": true,
          "internalType": "uint256",
          "name": "pid",
          "type": "uint256"
        },
        {
          "indexed": false,
          "internalType": "uint256",
          "name": "amount",
          "type": "uint256"
        }
      ],
      "name": "Withdraw",
      "type": "event"
    },
    {
      "inputs": [],
      "name": "BONUS_MULTIPLIER",
      "outputs": [
        {
          "internalType": "uint256",
          "name": "",
          "type": "uint256"
        }
      ],
      "stateMutability": "view",
      "type": "function"
    },
    {
      "inputs": [
        {
          "internalType": "uint256",
          "name": "_allocPoint",
          "type": "uint256"
        },
        {
          "internalType": "contract IERC20",
          "name": "_lpToken",
          "type": "address"
        },
        {
          "internalType": "bool",
          "name": "_withUpdate",
          "type": "bool"
        }
      ],
      "name": "add",
      "outputs": [],
      "stateMutability": "nonpayable",
      "type": "function"
    },
    {
      "inputs": [],
      "name": "bonusEndBlock",
      "outputs": [
        {
          "internalType": "uint256",
          "name": "",
          "type": "uint256"
        }
      ],
      "stateMutability": "view",
      "type": "function"
    },
    {
      "inputs": [
        {
          "internalType": "uint256",
          "name": "_pid",
          "type": "uint256"
        },
        {
          "internalType": "uint256",
          "name": "_amount",
          "type": "uint256"
        }
      ],
      "name": "deposit",
      "outputs": [],
      "stateMutability": "nonpayable",
      "type": "function"
    },
    {
      "inputs": [
        {
          "internalType": "address",
          "name": "_devaddr",
          "type": "address"
        }
      ],
      "name": "dev",
      "outputs": [],
      "stateMutability": "nonpayable",
      "type": "function"
    },
    {
      "inputs": [],
      "name": "devaddr",
      "outputs": [
        {
          "internalType": "address",
          "name": "",
          "type": "address"
        }
      ],
      "stateMutability": "view",
      "type": "function"
    },
    {
      "inputs": [
        {
          "internalType": "uint256",
          "name": "_pid",
          "type": "uint256"
        }
      ],
      "name": "emergencyWithdraw",
      "outputs": [],
      "stateMutability": "nonpayable",
      "type": "function"
    },
    {
      "inputs": [],
      "name": "finished",
      "outputs": [],
      "stateMutability": "nonpayable",
      "type": "function"
    },
    {
      "inputs": [
        {
          "internalType": "uint256",
          "name": "_from",
          "type": "uint256"
        },
        {
          "internalType": "uint256",
          "name": "_to",
          "type": "uint256"
        }
      ],
      "name": "getMultiplier",
      "outputs": [
        {
          "internalType": "uint256",
          "name": "",
          "type": "uint256"
        }
      ],
      "stateMutability": "view",
      "type": "function"
    },
    {
      "inputs": [],
      "name": "isFinish",
      "outputs": [
        {
          "internalType": "bool",
          "name": "",
          "type": "bool"
        }
      ],
      "stateMutability": "view",
      "type": "function"
    },
    {
      "inputs": [],
      "name": "massUpdatePools",
      "outputs": [],
      "stateMutability": "nonpayable",
      "type": "function"
    },
    {
      "inputs": [],
      "name": "owner",
      "outputs": [
        {
          "internalType": "address",
          "name": "",
          "type": "address"
        }
      ],
      "stateMutability": "view",
      "type": "function"
    },
    {
      "inputs": [
        {
          "internalType": "uint256",
          "name": "_pid",
          "type": "uint256"
        },
        {
          "internalType": "address",
          "name": "_user",
          "type": "address"
        }
      ],
      "name": "pendingVJin",
      "outputs": [
        {
          "internalType": "uint256",
          "name": "",
          "type": "uint256"
        }
      ],
      "stateMutability": "view",
      "type": "function"
    },
    {
      "inputs": [
        {
          "internalType": "uint256",
          "name": "",
          "type": "uint256"
        }
      ],
      "name": "poolInfo",
      "outputs": [
        {
          "internalType": "contract IERC20",
          "name": "lpToken",
          "type": "address"
        },
        {
          "internalType": "uint256",
          "name": "allocPoint",
          "type": "uint256"
        },
        {
          "internalType": "uint256",
          "name": "lastRewardBlock",
          "type": "uint256"
        },
        {
          "internalType": "uint256",
          "name": "accVJinPerShare",
          "type": "uint256"
        }
      ],
      "stateMutability": "view",
      "type": "function"
    },
    {
      "inputs": [],
      "name": "poolLength",
      "outputs": [
        {
          "internalType": "uint256",
          "name": "",
          "type": "uint256"
        }
      ],
      "stateMutability": "view",
      "type": "function"
    },
    {
      "inputs": [],
      "name": "renounceOwnership",
      "outputs": [],
      "stateMutability": "nonpayable",
      "type": "function"
    },
    {
      "inputs": [
        {
          "internalType": "uint256",
          "name": "_pid",
          "type": "uint256"
        },
        {
          "internalType": "uint256",
          "name": "_allocPoint",
          "type": "uint256"
        },
        {
          "internalType": "bool",
          "name": "_withUpdate",
          "type": "bool"
        }
      ],
      "name": "set",
      "outputs": [],
      "stateMutability": "nonpayable",
      "type": "function"
    },
    {
      "inputs": [],
      "name": "startBlock",
      "outputs": [
        {
          "internalType": "uint256",
          "name": "",
          "type": "uint256"
        }
      ],
      "stateMutability": "view",
      "type": "function"
    },
    {
      "inputs": [],
      "name": "totalAllocPoint",
      "outputs": [
        {
          "internalType": "uint256",
          "name": "",
          "type": "uint256"
        }
      ],
      "stateMutability": "view",
      "type": "function"
    },
    {
      "inputs": [
        {
          "internalType": "address",
          "name": "newOwner",
          "type": "address"
        }
      ],
      "name": "transferOwnership",
      "outputs": [],
      "stateMutability": "nonpayable",
      "type": "function"
    },
    {
      "inputs": [],
      "name": "updateBlockReward",
      "outputs": [],
      "stateMutability": "nonpayable",
      "type": "function"
    },
    {
      "inputs": [
        {
          "internalType": "uint256",
          "name": "multiplierNumber",
          "type": "uint256"
        }
      ],
      "name": "updateMultiplier",
      "outputs": [],
      "stateMutability": "nonpayable",
      "type": "function"
    },
    {
      "inputs": [
        {
          "internalType": "uint256",
          "name": "_pid",
          "type": "uint256"
        }
      ],
      "name": "updatePool",
      "outputs": [],
      "stateMutability": "nonpayable",
      "type": "function"
    },
    {
      "inputs": [
        {
          "internalType": "uint256",
          "name": "",
          "type": "uint256"
        },
        {
          "internalType": "address",
          "name": "",
          "type": "address"
        }
      ],
      "name": "userInfo",
      "outputs": [
        {
          "internalType": "uint256",
          "name": "amount",
          "type": "uint256"
        },
        {
          "internalType": "uint256",
          "name": "rewardDebt",
          "type": "uint256"
        }
      ],
      "stateMutability": "view",
      "type": "function"
    },
    {
      "inputs": [],
      "name": "vjin",
      "outputs": [
        {
          "internalType": "contract VJinToken",
          "name": "",
          "type": "address"
        }
      ],
      "stateMutability": "view",
      "type": "function"
    },
    {
      "inputs": [],
      "name": "vjinPerBlock",
      "outputs": [
        {
          "internalType": "uint256",
          "name": "",
          "type": "uint256"
        }
      ],
      "stateMutability": "view",
      "type": "function"
    },
    {
      "inputs": [
        {
          "internalType": "uint256",
          "name": "_pid",
          "type": "uint256"
        },
        {
          "internalType": "uint256",
          "name": "_amount",
          "type": "uint256"
        }
      ],
      "name": "withdraw",
      "outputs": [],
      "stateMutability": "nonpayable",
      "type": "function"
    }
  ],
  "transactionHash": "0x15dbc2e5723ac6901088c5ff44b892153526ca2b57f8d25362c64a7e7eb0d748",
  "args": [
    "0xA075b775392CFcADFda1f815DC578F9722Ac67ae",
    "0xc6B70C954dfD36DE6bFcC281B608dFd4256f56Df",
    "237823440000000000",
    "2466050",
    "2466410"
  ],
  "numDeployments": 1,
  "solcInputHash": "8148e6f19936a6dc231a42415fbd2116",
  "bytecode": "0x60806040526003600555600060085534801561001a57600080fd5b50604051611c7e380380611c7e833981810160405260a081101561003d57600080fd5b5080516020820151604083015160608401516080909401519293919290919060006100666100ee565b600080546001600160a01b0319166001600160a01b0383169081178255604051929350917f8be0079c531659141344cd1fd0a4f28419497f9722a3daafe3b4186f6b6457e0908290a350600180546001600160a01b039687166001600160a01b03199182161790915560028054959096169416939093179093556004556003556009556100f2565b3390565b611b7d806101016000396000f3fe608060405234801561001057600080fd5b50600436106101a95760003560e01c8063630b5ba1116100f95780638dbb1e3a11610097578063d49e77cd11610071578063d49e77cd1461040e578063e2bbb15814610416578063f2fde38b14610439578063fbdfb12c1461045f576101a9565b80638dbb1e3a1461039e57806393f1a40b146103c1578063bef4876b14610406576101a9565b80638aa28550116100d35780638aa28550146103605780638d88a90e146103685780638d949d4b1461038e5780638da5cb5b14610396576101a9565b8063630b5ba11461032557806364482f791461032d578063715018a614610358576101a9565b80632c8ca0ea1161016657806348cd4cb11161014057806348cd4cb1146102c657806351eb05a6146102ce5780635312ea8e146102eb5780635ffe614614610308576101a9565b80632c8ca0ea14610263578063441a3e701461027f5780634783708b146102a2576101a9565b806305786a99146101ae578063081e3eda146101c85780631526fe27146101d057806317caf6f11461021d5780631aed6553146102255780631eaaa0451461022d575b600080fd5b6101b661048b565b60408051918252519081900360200190f35b6101b6610491565b6101ed600480360360208110156101e657600080fd5b5035610497565b604080516001600160a01b0390951685526020850193909352838301919091526060830152519081900360800190f35b6101b66104d8565b6101b66104de565b6102616004803603606081101561024357600080fd5b508035906001600160a01b03602082013516906040013515156104e4565b005b61026b610669565b604080519115158252519081900360200190f35b6102616004803603604081101561029557600080fd5b5080359060200135610672565b6102aa6107c5565b604080516001600160a01b039092168252519081900360200190f35b6101b66107d4565b610261600480360360208110156102e457600080fd5b50356107da565b6102616004803603602081101561030157600080fd5b5035610a06565b6102616004803603602081101561031e57600080fd5b5035610aa1565b610261610bef565b6102616004803603606081101561034357600080fd5b50803590602081013590604001351515610c12565b610261610d13565b6101b6610dbf565b6102616004803603602081101561037e57600080fd5b50356001600160a01b0316610dc5565b610261610e32565b6102aa610f7f565b6101b6600480360360408110156103b457600080fd5b5080359060200135610f8e565b6103ed600480360360408110156103d757600080fd5b50803590602001356001600160a01b0316610ffd565b6040805192835260208301919091528051918290030190f35b610261611021565b6102aa611092565b6102616004803603604081101561042c57600080fd5b50803590602001356110a1565b6102616004803603602081101561044f57600080fd5b50356001600160a01b03166111ac565b6101b66004803603604081101561047557600080fd5b50803590602001356001600160a01b03166112ae565b60045481565b60065490565b600681815481106104a457fe5b600091825260209091206004909102018054600182015460028301546003909301546001600160a01b039092169350919084565b60085481565b60035481565b6104ec611410565b6001600160a01b03166104fd610f7f565b6001600160a01b031614610546576040805162461bcd60e51b81526020600482018190526024820152600080516020611afe833981519152604482015290519081900360640190fd5b801561055457610554610bef565b6000600954431161056757600954610569565b435b6008549091506105799085611414565b600855604080516080810182526001600160a01b0394851681526020810195865290810191825260006060820181815260068054600181018255925291517ff652222313e28459528d920b65115c16c04f3efc82aaedc97be59f3f377c0d3f600490920291820180546001600160a01b031916919096161790945593517ff652222313e28459528d920b65115c16c04f3efc82aaedc97be59f3f377c0d40840155517ff652222313e28459528d920b65115c16c04f3efc82aaedc97be59f3f377c0d418301555090517ff652222313e28459528d920b65115c16c04f3efc82aaedc97be59f3f377c0d4290910155565b600a5460ff1681565b60006006838154811061068157fe5b6000918252602080832086845260078252604080852033865290925292208054600490920290920192508311156106f4576040805162461bcd60e51b81526020600482015260126024820152711dda5d1a191c985dce881b9bdd0819dbdbd960721b604482015290519081900360640190fd5b6106fd846107da565b6000610737826001015461073164e8d4a5100061072b8760030154876000015461147590919063ffffffff16565b906114ce565b90611535565b90506107433382611592565b815461074f9085611535565b808355600384015461076c9164e8d4a510009161072b9190611475565b60018301558254610787906001600160a01b0316338661171b565b604080518581529051869133917ff279e6a1f5e320cca91135676d9cb6e44ca8a08c0b88342bcdb1144f6511b5689181900360200190a35050505050565b6001546001600160a01b031681565b60095481565b6000600682815481106107e957fe5b906000526020600020906004020190508060020154431161080a5750610a03565b8054604080516370a0823160e01b815230600482015290516000926001600160a01b0316916370a08231916024808301926020929190829003018186803b15801561085457600080fd5b505afa158015610868573d6000803e3d6000fd5b505050506040513d602081101561087e57600080fd5b5051905080610894575043600290910155610a03565b60006108a4836002015443610f8e565b905060006108d160085461072b86600101546108cb6004548761147590919063ffffffff16565b90611475565b6001546002549192506001600160a01b03908116916340c10f1991166108f884600a6114ce565b6040518363ffffffff1660e01b815260040180836001600160a01b0316815260200182815260200192505050600060405180830381600087803b15801561093e57600080fd5b505af1158015610952573d6000803e3d6000fd5b5050600154604080516340c10f1960e01b81523060048201526024810186905290516001600160a01b0390921693506340c10f19925060448082019260009290919082900301818387803b1580156109a957600080fd5b505af11580156109bd573d6000803e3d6000fd5b505050506109eb6109e08461072b64e8d4a510008561147590919063ffffffff16565b600386015490611414565b60038501554360028501556109fe610e32565b505050505b50565b600060068281548110610a1557fe5b60009182526020808320858452600782526040808520338087529352909320805460049093029093018054909450610a5a926001600160a01b0391909116919061171b565b80546040805191825251849133917fbb757047c2b5f3974fe26b7c10f732e7bce710b0952a71082702781e62ae05959181900360200190a360008082556001909101555050565b610aa9611410565b6001600160a01b0316610aba610f7f565b6001600160a01b031614610b03576040805162461bcd60e51b81526020600482018190526024820152600080516020611afe833981519152604482015290519081900360640190fd5b6003811115610b50576040805162461bcd60e51b815260206004820152601460248201527326b0bc1037b31019bc1036bab63a34b83634b2b960611b604482015290519081900360640190fd5b6001811015610b9f576040805162461bcd60e51b815260206004820152601660248201527543616e6e6f74206265206c6f776572207468616e203160501b604482015290519081900360640190fd5b600554811115610bea576040805162461bcd60e51b815260206004820152601160248201527043616e206f6e6c7920646563726561736560781b604482015290519081900360640190fd5b600555565b60065460005b81811015610c0e57610c06816107da565b600101610bf5565b5050565b610c1a611410565b6001600160a01b0316610c2b610f7f565b6001600160a01b031614610c74576040805162461bcd60e51b81526020600482018190526024820152600080516020611afe833981519152604482015290519081900360640190fd5b8015610c8257610c82610bef565b8160068481548110610c9057fe5b90600052602060002090600402016001015414610d0e57610ce482610cde60068681548110610cbb57fe5b90600052602060002090600402016001015460085461153590919063ffffffff16565b90611414565b6008819055508160068481548110610cf857fe5b9060005260206000209060040201600101819055505b505050565b610d1b611410565b6001600160a01b0316610d2c610f7f565b6001600160a01b031614610d75576040805162461bcd60e51b81526020600482018190526024820152600080516020611afe833981519152604482015290519081900360640190fd5b600080546040516001600160a01b03909116907f8be0079c531659141344cd1fd0a4f28419497f9722a3daafe3b4186f6b6457e0908390a3600080546001600160a01b0319169055565b60055481565b6002546001600160a01b03163314610e10576040805162461bcd60e51b81526020600482015260096024820152686465763a207775743f60b81b604482015290519081900360640190fd5b600280546001600160a01b0319166001600160a01b0392909216919091179055565b60006006600081548110610e4257fe5b600091825260209182902060049182020154604080516370a0823160e01b81523093810193909352516001600160a01b03909116926370a082319260248082019391829003018186803b158015610e9857600080fd5b505afa158015610eac573d6000803e3d6000fd5b505050506040513d6020811015610ec257600080fd5b5051600a5490915060ff1615610edc576000600455610a03565b69d3c21bcecceda10000008111610efe5767034ceb289c762000600455610a03565b6a0422ca8b0a00a4250000008110610f21576704f360bceab13000600455610a03565b69d3c21bcecceda100000081118015610f4457506a0422ca8b0a00a42500000081105b15610a03576a0422ca8b0a00a425000000610f78632598060061072b846108cb600381600f610cde8987602385838a611535565b6004555050565b6000546001600160a01b031690565b60006003548211610fb157600554610faa906108cb8486611535565b9050610ff7565b6003548310610fc457610faa8284611535565b610faa610fdc6003548461153590919063ffffffff16565b610cde6005546108cb8760035461153590919063ffffffff16565b92915050565b60076020908152600092835260408084209091529082529020805460019091015482565b611029611410565b6001600160a01b031661103a610f7f565b6001600160a01b031614611083576040805162461bcd60e51b81526020600482018190526024820152600080516020611afe833981519152604482015290519081900360640190fd5b600a805460ff19166001179055565b6002546001600160a01b031681565b6000600683815481106110b057fe5b600091825260208083208684526007825260408085203386529092529220600490910290910191506110e1846107da565b80541561112a576000611116826001015461073164e8d4a5100061072b8760030154876000015461147590919063ffffffff16565b90508015611128576111283382611592565b505b8154611141906001600160a01b031633308661176d565b805461114d9084611414565b808255600383015461116a9164e8d4a510009161072b9190611475565b6001820155604080518481529051859133917f90890809c654f11d6e72a28fa60149770a0d11ec6c92319d6ceb2bb0a4ea1a159181900360200190a350505050565b6111b4611410565b6001600160a01b03166111c5610f7f565b6001600160a01b03161461120e576040805162461bcd60e51b81526020600482018190526024820152600080516020611afe833981519152604482015290519081900360640190fd5b6001600160a01b0381166112535760405162461bcd60e51b8152600401808060200182810382526026815260200180611a916026913960400191505060405180910390fd5b600080546040516001600160a01b03808516939216917f8be0079c531659141344cd1fd0a4f28419497f9722a3daafe3b4186f6b6457e091a3600080546001600160a01b0319166001600160a01b0392909216919091179055565b600080600684815481106112be57fe5b600091825260208083208784526007825260408085206001600160a01b03898116875290845281862060049586029093016003810154815484516370a0823160e01b81523098810198909852935191985093969395939492909116926370a08231926024808301939192829003018186803b15801561133c57600080fd5b505afa158015611350573d6000803e3d6000fd5b505050506040513d602081101561136657600080fd5b505160028501549091504311801561137d57508015155b156113dd576000611392856002015443610f8e565b905060006113b960085461072b88600101546108cb6004548761147590919063ffffffff16565b90506113d86113d18461072b8464e8d4a51000611475565b8590611414565b935050505b611405836001015461073164e8d4a5100061072b86886000015461147590919063ffffffff16565b979650505050505050565b3390565b60008282018381101561146e576040805162461bcd60e51b815260206004820152601b60248201527f536166654d6174683a206164646974696f6e206f766572666c6f770000000000604482015290519081900360640190fd5b9392505050565b60008261148457506000610ff7565b8282028284828161149157fe5b041461146e5760405162461bcd60e51b8152600401808060200182810382526021815260200180611add6021913960400191505060405180910390fd5b6000808211611524576040805162461bcd60e51b815260206004820152601a60248201527f536166654d6174683a206469766973696f6e206279207a65726f000000000000604482015290519081900360640190fd5b81838161152d57fe5b049392505050565b60008282111561158c576040805162461bcd60e51b815260206004820152601e60248201527f536166654d6174683a207375627472616374696f6e206f766572666c6f770000604482015290519081900360640190fd5b50900390565b600154604080516370a0823160e01b815230600482015290516000926001600160a01b0316916370a08231916024808301926020929190829003018186803b1580156115dd57600080fd5b505afa1580156115f1573d6000803e3d6000fd5b505050506040513d602081101561160757600080fd5b505190508082111561169b576001546040805163a9059cbb60e01b81526001600160a01b038681166004830152602482018590529151919092169163a9059cbb9160448083019260209291908290030181600087803b15801561166957600080fd5b505af115801561167d573d6000803e3d6000fd5b505050506040513d602081101561169357600080fd5b50610d0e9050565b6001546040805163a9059cbb60e01b81526001600160a01b038681166004830152602482018690529151919092169163a9059cbb9160448083019260209291908290030181600087803b1580156116f157600080fd5b505af1158015611705573d6000803e3d6000fd5b505050506040513d60208110156109fe57600080fd5b604080516001600160a01b038416602482015260448082018490528251808303909101815260649091019091526020810180516001600160e01b031663a9059cbb60e01b179052610d0e9084906117cd565b604080516001600160a01b0380861660248301528416604482015260648082018490528251808303909101815260849091019091526020810180516001600160e01b03166323b872dd60e01b1790526117c79085906117cd565b50505050565b6060611822826040518060400160405280602081526020017f5361666545524332303a206c6f772d6c6576656c2063616c6c206661696c6564815250856001600160a01b031661187e9092919063ffffffff16565b805190915015610d0e5780806020019051602081101561184157600080fd5b5051610d0e5760405162461bcd60e51b815260040180806020018281038252602a815260200180611b1e602a913960400191505060405180910390fd5b606061188d8484600085611895565b949350505050565b6060824710156118d65760405162461bcd60e51b8152600401808060200182810382526026815260200180611ab76026913960400191505060405180910390fd5b6118df856119e6565b611930576040805162461bcd60e51b815260206004820152601d60248201527f416464726573733a2063616c6c20746f206e6f6e2d636f6e7472616374000000604482015290519081900360640190fd5b60006060866001600160a01b031685876040518082805190602001908083835b6020831061196f5780518252601f199092019160209182019101611950565b6001836020036101000a03801982511681845116808217855250505050505090500191505060006040518083038185875af1925050503d80600081146119d1576040519150601f19603f3d011682016040523d82523d6000602084013e6119d6565b606091505b50915091506114058282866119ec565b3b151590565b606083156119fb57508161146e565b825115611a0b5782518084602001fd5b8160405162461bcd60e51b81526004018080602001828103825283818151815260200191508051906020019080838360005b83811015611a55578181015183820152602001611a3d565b50505050905090810190601f168015611a825780820380516001836020036101000a031916815260200191505b509250505060405180910390fdfe4f776e61626c653a206e6577206f776e657220697320746865207a65726f2061646472657373416464726573733a20696e73756666696369656e742062616c616e636520666f722063616c6c536166654d6174683a206d756c7469706c69636174696f6e206f766572666c6f774f776e61626c653a2063616c6c6572206973206e6f7420746865206f776e65725361666545524332303a204552433230206f7065726174696f6e20646964206e6f742073756363656564a2646970667358221220f723ec6f4435a5b0d494692d679f8b57ad0653aab2e4f1e88d14ca13ac49c57b64736f6c634300060c0033",
  "devdoc": {
    "kind": "dev",
    "methods": {
      "owner()": {
        "details": "Returns the address of the current owner."
      },
      "renounceOwnership()": {
        "details": "Leaves the contract without owner. It will not be possible to call `onlyOwner` functions anymore. Can only be called by the current owner. NOTE: Renouncing ownership will leave the contract without an owner, thereby removing any functionality that is only available to the owner."
      },
      "transferOwnership(address)": {
        "details": "Transfers ownership of the contract to a new account (`newOwner`). Can only be called by the current owner."
      }
    },
    "version": 1
  },
  "userdoc": {
    "kind": "user",
    "methods": {},
    "version": 1
  },
  "storageLayout": {
    "storage": [
      {
        "astId": 7,
        "contract": "contracts/MasterChef.sol:MasterChef",
        "label": "_owner",
        "offset": 0,
        "slot": "0",
        "type": "t_address"
      },
      {
        "astId": 2101,
        "contract": "contracts/MasterChef.sol:MasterChef",
        "label": "vjin",
        "offset": 0,
        "slot": "1",
        "type": "t_contract(VJinToken)3043"
      },
      {
        "astId": 2103,
        "contract": "contracts/MasterChef.sol:MasterChef",
        "label": "devaddr",
        "offset": 0,
        "slot": "2",
        "type": "t_address"
      },
      {
        "astId": 2105,
        "contract": "contracts/MasterChef.sol:MasterChef",
        "label": "bonusEndBlock",
        "offset": 0,
        "slot": "3",
        "type": "t_uint256"
      },
      {
        "astId": 2107,
        "contract": "contracts/MasterChef.sol:MasterChef",
        "label": "vjinPerBlock",
        "offset": 0,
        "slot": "4",
        "type": "t_uint256"
      },
      {
        "astId": 2110,
        "contract": "contracts/MasterChef.sol:MasterChef",
        "label": "BONUS_MULTIPLIER",
        "offset": 0,
        "slot": "5",
        "type": "t_uint256"
      },
      {
        "astId": 2113,
        "contract": "contracts/MasterChef.sol:MasterChef",
        "label": "poolInfo",
        "offset": 0,
        "slot": "6",
        "type": "t_array(t_struct(PoolInfo)2099_storage)dyn_storage"
      },
      {
        "astId": 2119,
        "contract": "contracts/MasterChef.sol:MasterChef",
        "label": "userInfo",
        "offset": 0,
        "slot": "7",
        "type": "t_mapping(t_uint256,t_mapping(t_address,t_struct(UserInfo)2090_storage))"
      },
      {
        "astId": 2122,
        "contract": "contracts/MasterChef.sol:MasterChef",
        "label": "totalAllocPoint",
        "offset": 0,
        "slot": "8",
        "type": "t_uint256"
      },
      {
        "astId": 2124,
        "contract": "contracts/MasterChef.sol:MasterChef",
        "label": "startBlock",
        "offset": 0,
        "slot": "9",
        "type": "t_uint256"
      },
      {
        "astId": 2126,
        "contract": "contracts/MasterChef.sol:MasterChef",
        "label": "isFinish",
        "offset": 0,
        "slot": "10",
        "type": "t_bool"
      }
    ],
    "types": {
      "t_address": {
        "encoding": "inplace",
        "label": "address",
        "numberOfBytes": "20"
      },
      "t_array(t_struct(PoolInfo)2099_storage)dyn_storage": {
        "base": "t_struct(PoolInfo)2099_storage",
        "encoding": "dynamic_array",
        "label": "struct MasterChef.PoolInfo[]",
        "numberOfBytes": "32"
      },
      "t_bool": {
        "encoding": "inplace",
        "label": "bool",
        "numberOfBytes": "1"
      },
      "t_contract(IERC20)1045": {
        "encoding": "inplace",
        "label": "contract IERC20",
        "numberOfBytes": "20"
      },
      "t_contract(VJinToken)3043": {
        "encoding": "inplace",
        "label": "contract VJinToken",
        "numberOfBytes": "20"
      },
      "t_mapping(t_address,t_struct(UserInfo)2090_storage)": {
        "encoding": "mapping",
        "key": "t_address",
        "label": "mapping(address => struct MasterChef.UserInfo)",
        "numberOfBytes": "32",
        "value": "t_struct(UserInfo)2090_storage"
      },
      "t_mapping(t_uint256,t_mapping(t_address,t_struct(UserInfo)2090_storage))": {
        "encoding": "mapping",
        "key": "t_uint256",
        "label": "mapping(uint256 => mapping(address => struct MasterChef.UserInfo))",
        "numberOfBytes": "32",
        "value": "t_mapping(t_address,t_struct(UserInfo)2090_storage)"
      },
      "t_struct(PoolInfo)2099_storage": {
        "encoding": "inplace",
        "label": "struct MasterChef.PoolInfo",
        "members": [
          {
            "astId": 2092,
            "contract": "contracts/MasterChef.sol:MasterChef",
            "label": "lpToken",
            "offset": 0,
            "slot": "0",
            "type": "t_contract(IERC20)1045"
          },
          {
            "astId": 2094,
            "contract": "contracts/MasterChef.sol:MasterChef",
            "label": "allocPoint",
            "offset": 0,
            "slot": "1",
            "type": "t_uint256"
          },
          {
            "astId": 2096,
            "contract": "contracts/MasterChef.sol:MasterChef",
            "label": "lastRewardBlock",
            "offset": 0,
            "slot": "2",
            "type": "t_uint256"
          },
          {
            "astId": 2098,
            "contract": "contracts/MasterChef.sol:MasterChef",
            "label": "accVJinPerShare",
            "offset": 0,
            "slot": "3",
            "type": "t_uint256"
          }
        ],
        "numberOfBytes": "128"
      },
      "t_struct(UserInfo)2090_storage": {
        "encoding": "inplace",
        "label": "struct MasterChef.UserInfo",
        "members": [
          {
            "astId": 2087,
            "contract": "contracts/MasterChef.sol:MasterChef",
            "label": "amount",
            "offset": 0,
            "slot": "0",
            "type": "t_uint256"
          },
          {
            "astId": 2089,
            "contract": "contracts/MasterChef.sol:MasterChef",
            "label": "rewardDebt",
            "offset": 0,
            "slot": "1",
            "type": "t_uint256"
          }
        ],
        "numberOfBytes": "64"
      },
      "t_uint256": {
        "encoding": "inplace",
        "label": "uint256",
        "numberOfBytes": "32"
      }
    }
  }
}