{
  "address": "0x67358F68e054828f2aA09cEd8A66B6DFCF715918",
  "abi": [
    {
      "inputs": [
        {
          "internalType": "contract VJinToken",
          "name": "_vjin",
          "type": "address"
        },
        {
          "internalType": "address",
          "name": "_devaddr",
          "type": "address"
        },
        {
          "internalType": "uint256",
          "name": "_vjinPerBlock",
          "type": "uint256"
        },
        {
          "internalType": "uint256",
          "name": "_startBlock",
          "type": "uint256"
        },
        {
          "internalType": "uint256",
          "name": "_bonusEndBlock",
          "type": "uint256"
        }
      ],
      "stateMutability": "nonpayable",
      "type": "constructor"
    },
    {
      "anonymous": false,
      "inputs": [
        {
          "indexed": true,
          "internalType": "address",
          "name": "user",
          "type": "address"
        },
        {
          "indexed": true,
          "internalType": "uint256",
          "name": "pid",
          "type": "uint256"
        },
        {
          "indexed": false,
          "internalType": "uint256",
          "name": "amount",
          "type": "uint256"
        }
      ],
      "name": "Deposit",
      "type": "event"
    },
    {
      "anonymous": false,
      "inputs": [
        {
          "indexed": true,
          "internalType": "address",
          "name": "user",
          "type": "address"
        },
        {
          "indexed": true,
          "internalType": "uint256",
          "name": "pid",
          "type": "uint256"
        },
        {
          "indexed": false,
          "internalType": "uint256",
          "name": "amount",
          "type": "uint256"
        }
      ],
      "name": "EmergencyWithdraw",
      "type": "event"
    },
    {
      "anonymous": false,
      "inputs": [
        {
          "indexed": true,
          "internalType": "address",
          "name": "previousOwner",
          "type": "address"
        },
        {
          "indexed": true,
          "internalType": "address",
          "name": "newOwner",
          "type": "address"
        }
      ],
      "name": "OwnershipTransferred",
      "type": "event"
    },
    {
      "anonymous": false,
      "inputs": [
        {
          "indexed": true,
          "internalType": "address",
          "name": "user",
          "type": "address"
        },
        {
          "indexed": true,
          "internalType": "uint256",
          "name": "pid",
          "type": "uint256"
        },
        {
          "indexed": false,
          "internalType": "uint256",
          "name": "amount",
          "type": "uint256"
        }
      ],
      "name": "Withdraw",
      "type": "event"
    },
    {
      "inputs": [],
      "name": "BONUS_MULTIPLIER",
      "outputs": [
        {
          "internalType": "uint256",
          "name": "",
          "type": "uint256"
        }
      ],
      "stateMutability": "view",
      "type": "function"
    },
    {
      "inputs": [
        {
          "internalType": "uint256",
          "name": "_allocPoint",
          "type": "uint256"
        },
        {
          "internalType": "contract IERC20",
          "name": "_lpToken",
          "type": "address"
        },
        {
          "internalType": "bool",
          "name": "_withUpdate",
          "type": "bool"
        }
      ],
      "name": "add",
      "outputs": [],
      "stateMutability": "nonpayable",
      "type": "function"
    },
    {
      "inputs": [],
      "name": "bonusEndBlock",
      "outputs": [
        {
          "internalType": "uint256",
          "name": "",
          "type": "uint256"
        }
      ],
      "stateMutability": "view",
      "type": "function"
    },
    {
      "inputs": [
        {
          "internalType": "uint256",
          "name": "_pid",
          "type": "uint256"
        },
        {
          "internalType": "uint256",
          "name": "_amount",
          "type": "uint256"
        }
      ],
      "name": "deposit",
      "outputs": [],
      "stateMutability": "nonpayable",
      "type": "function"
    },
    {
      "inputs": [
        {
          "internalType": "address",
          "name": "_devaddr",
          "type": "address"
        }
      ],
      "name": "dev",
      "outputs": [],
      "stateMutability": "nonpayable",
      "type": "function"
    },
    {
      "inputs": [],
      "name": "devaddr",
      "outputs": [
        {
          "internalType": "address",
          "name": "",
          "type": "address"
        }
      ],
      "stateMutability": "view",
      "type": "function"
    },
    {
      "inputs": [
        {
          "internalType": "uint256",
          "name": "_pid",
          "type": "uint256"
        }
      ],
      "name": "emergencyWithdraw",
      "outputs": [],
      "stateMutability": "nonpayable",
      "type": "function"
    },
    {
      "inputs": [],
      "name": "finished",
      "outputs": [],
      "stateMutability": "nonpayable",
      "type": "function"
    },
    {
      "inputs": [
        {
          "internalType": "uint256",
          "name": "_from",
          "type": "uint256"
        },
        {
          "internalType": "uint256",
          "name": "_to",
          "type": "uint256"
        }
      ],
      "name": "getMultiplier",
      "outputs": [
        {
          "internalType": "uint256",
          "name": "",
          "type": "uint256"
        }
      ],
      "stateMutability": "view",
      "type": "function"
    },
    {
      "inputs": [],
      "name": "isFinish",
      "outputs": [
        {
          "internalType": "bool",
          "name": "",
          "type": "bool"
        }
      ],
      "stateMutability": "view",
      "type": "function"
    },
    {
      "inputs": [],
      "name": "massUpdatePools",
      "outputs": [],
      "stateMutability": "nonpayable",
      "type": "function"
    },
    {
      "inputs": [],
      "name": "owner",
      "outputs": [
        {
          "internalType": "address",
          "name": "",
          "type": "address"
        }
      ],
      "stateMutability": "view",
      "type": "function"
    },
    {
      "inputs": [
        {
          "internalType": "uint256",
          "name": "_pid",
          "type": "uint256"
        },
        {
          "internalType": "address",
          "name": "_user",
          "type": "address"
        }
      ],
      "name": "pendingVJin",
      "outputs": [
        {
          "internalType": "uint256",
          "name": "",
          "type": "uint256"
        }
      ],
      "stateMutability": "view",
      "type": "function"
    },
    {
      "inputs": [
        {
          "internalType": "uint256",
          "name": "",
          "type": "uint256"
        }
      ],
      "name": "poolInfo",
      "outputs": [
        {
          "internalType": "contract IERC20",
          "name": "lpToken",
          "type": "address"
        },
        {
          "internalType": "uint256",
          "name": "allocPoint",
          "type": "uint256"
        },
        {
          "internalType": "uint256",
          "name": "lastRewardBlock",
          "type": "uint256"
        },
        {
          "internalType": "uint256",
          "name": "accVJinPerShare",
          "type": "uint256"
        }
      ],
      "stateMutability": "view",
      "type": "function"
    },
    {
      "inputs": [],
      "name": "poolLength",
      "outputs": [
        {
          "internalType": "uint256",
          "name": "",
          "type": "uint256"
        }
      ],
      "stateMutability": "view",
      "type": "function"
    },
    {
      "inputs": [],
      "name": "renounceOwnership",
      "outputs": [],
      "stateMutability": "nonpayable",
      "type": "function"
    },
    {
      "inputs": [
        {
          "internalType": "uint256",
          "name": "_pid",
          "type": "uint256"
        },
        {
          "internalType": "uint256",
          "name": "_allocPoint",
          "type": "uint256"
        },
        {
          "internalType": "bool",
          "name": "_withUpdate",
          "type": "bool"
        }
      ],
      "name": "set",
      "outputs": [],
      "stateMutability": "nonpayable",
      "type": "function"
    },
    {
      "inputs": [],
      "name": "startBlock",
      "outputs": [
        {
          "internalType": "uint256",
          "name": "",
          "type": "uint256"
        }
      ],
      "stateMutability": "view",
      "type": "function"
    },
    {
      "inputs": [],
      "name": "totalAllocPoint",
      "outputs": [
        {
          "internalType": "uint256",
          "name": "",
          "type": "uint256"
        }
      ],
      "stateMutability": "view",
      "type": "function"
    },
    {
      "inputs": [
        {
          "internalType": "address",
          "name": "newOwner",
          "type": "address"
        }
      ],
      "name": "transferOwnership",
      "outputs": [],
      "stateMutability": "nonpayable",
      "type": "function"
    },
    {
      "inputs": [
        {
          "internalType": "uint256",
          "name": "multiplierNumber",
          "type": "uint256"
        }
      ],
      "name": "updateMultiplier",
      "outputs": [],
      "stateMutability": "nonpayable",
      "type": "function"
    },
    {
      "inputs": [
        {
          "internalType": "uint256",
          "name": "_pid",
          "type": "uint256"
        }
      ],
      "name": "updatePool",
      "outputs": [],
      "stateMutability": "nonpayable",
      "type": "function"
    },
    {
      "inputs": [
        {
          "internalType": "uint256",
          "name": "",
          "type": "uint256"
        },
        {
          "internalType": "address",
          "name": "",
          "type": "address"
        }
      ],
      "name": "userInfo",
      "outputs": [
        {
          "internalType": "uint256",
          "name": "amount",
          "type": "uint256"
        },
        {
          "internalType": "uint256",
          "name": "rewardDebt",
          "type": "uint256"
        }
      ],
      "stateMutability": "view",
      "type": "function"
    },
    {
      "inputs": [],
      "name": "vjin",
      "outputs": [
        {
          "internalType": "contract VJinToken",
          "name": "",
          "type": "address"
        }
      ],
      "stateMutability": "view",
      "type": "function"
    },
    {
      "inputs": [],
      "name": "vjinPerBlock",
      "outputs": [
        {
          "internalType": "uint256",
          "name": "",
          "type": "uint256"
        }
      ],
      "stateMutability": "view",
      "type": "function"
    },
    {
      "inputs": [
        {
          "internalType": "uint256",
          "name": "_pid",
          "type": "uint256"
        },
        {
          "internalType": "uint256",
          "name": "_amount",
          "type": "uint256"
        }
      ],
      "name": "withdraw",
      "outputs": [],
      "stateMutability": "nonpayable",
      "type": "function"
    }
  ],
  "transactionHash": "0x98c20544744754b7a2bb170dd35be690d603e884fb9cbbf457c89bbded072ba5",
  "args": [
    "0x48157Fd2d1665c66d92d815388e407b9dC58DC9F",
    "0xc6B70C954dfD36DE6bFcC281B608dFd4256f56Df",
    "237823440000000000",
    "14891530",
    "15135900"
  ],
  "numDeployments": 1,
  "solcInputHash": "44a1db721d27284f6f1fce0511d026aa",
  "bytecode": "0x60806040526003600555600060085534801561001a57600080fd5b50604051611c5b380380611c5b833981810160405260a081101561003d57600080fd5b5080516020820151604083015160608401516080909401519293919290919060006100666100ee565b600080546001600160a01b0319166001600160a01b0383169081178255604051929350917f8be0079c531659141344cd1fd0a4f28419497f9722a3daafe3b4186f6b6457e0908290a350600180546001600160a01b039687166001600160a01b03199182161790915560028054959096169416939093179093556004556003556009556100f2565b3390565b611b5a806101016000396000f3fe608060405234801561001057600080fd5b506004361061018e5760003560e01c8063630b5ba1116100de5780638dbb1e3a11610097578063d49e77cd11610071578063d49e77cd146103eb578063e2bbb158146103f3578063f2fde38b14610416578063fbdfb12c1461043c5761018e565b80638dbb1e3a1461037b57806393f1a40b1461039e578063bef4876b146103e35761018e565b8063630b5ba11461030a57806364482f7914610312578063715018a61461033d5780638aa28550146103455780638d88a90e1461034d5780638da5cb5b146103735761018e565b80632c8ca0ea1161014b57806348cd4cb11161012557806348cd4cb1146102ab57806351eb05a6146102b35780635312ea8e146102d05780635ffe6146146102ed5761018e565b80632c8ca0ea14610248578063441a3e70146102645780634783708b146102875761018e565b806305786a9914610193578063081e3eda146101ad5780631526fe27146101b557806317caf6f1146102025780631aed65531461020a5780631eaaa04514610212575b600080fd5b61019b610468565b60408051918252519081900360200190f35b61019b61046e565b6101d2600480360360208110156101cb57600080fd5b5035610474565b604080516001600160a01b0390951685526020850193909352838301919091526060830152519081900360800190f35b61019b6104b5565b61019b6104bb565b6102466004803603606081101561022857600080fd5b508035906001600160a01b03602082013516906040013515156104c1565b005b610250610646565b604080519115158252519081900360200190f35b6102466004803603604081101561027a57600080fd5b508035906020013561064f565b61028f6107a2565b604080516001600160a01b039092168252519081900360200190f35b61019b6107b1565b610246600480360360208110156102c957600080fd5b50356107b7565b610246600480360360208110156102e657600080fd5b50356109e3565b6102466004803603602081101561030357600080fd5b5035610a7e565b610246610bcc565b6102466004803603606081101561032857600080fd5b50803590602081013590604001351515610bef565b610246610cf0565b61019b610d9c565b6102466004803603602081101561036357600080fd5b50356001600160a01b0316610da2565b61028f610e0f565b61019b6004803603604081101561039157600080fd5b5080359060200135610e1e565b6103ca600480360360408110156103b457600080fd5b50803590602001356001600160a01b0316610e8d565b6040805192835260208301919091528051918290030190f35b610246610eb1565b61028f610f22565b6102466004803603604081101561040957600080fd5b5080359060200135610f31565b6102466004803603602081101561042c57600080fd5b50356001600160a01b031661103c565b61019b6004803603604081101561045257600080fd5b50803590602001356001600160a01b031661113e565b60045481565b60065490565b6006818154811061048157fe5b600091825260209091206004909102018054600182015460028301546003909301546001600160a01b039092169350919084565b60085481565b60035481565b6104c96112a0565b6001600160a01b03166104da610e0f565b6001600160a01b031614610523576040805162461bcd60e51b81526020600482018190526024820152600080516020611adb833981519152604482015290519081900360640190fd5b801561053157610531610bcc565b6000600954431161054457600954610546565b435b60085490915061055690856112a4565b600855604080516080810182526001600160a01b0394851681526020810195865290810191825260006060820181815260068054600181018255925291517ff652222313e28459528d920b65115c16c04f3efc82aaedc97be59f3f377c0d3f600490920291820180546001600160a01b031916919096161790945593517ff652222313e28459528d920b65115c16c04f3efc82aaedc97be59f3f377c0d40840155517ff652222313e28459528d920b65115c16c04f3efc82aaedc97be59f3f377c0d418301555090517ff652222313e28459528d920b65115c16c04f3efc82aaedc97be59f3f377c0d4290910155565b600a5460ff1681565b60006006838154811061065e57fe5b6000918252602080832086845260078252604080852033865290925292208054600490920290920192508311156106d1576040805162461bcd60e51b81526020600482015260126024820152711dda5d1a191c985dce881b9bdd0819dbdbd960721b604482015290519081900360640190fd5b6106da846107b7565b6000610714826001015461070e64e8d4a510006107088760030154876000015461130590919063ffffffff16565b9061135e565b906113c5565b90506107203382611422565b815461072c90856113c5565b80835560038401546107499164e8d4a51000916107089190611305565b60018301558254610764906001600160a01b031633866115ab565b604080518581529051869133917ff279e6a1f5e320cca91135676d9cb6e44ca8a08c0b88342bcdb1144f6511b5689181900360200190a35050505050565b6001546001600160a01b031681565b60095481565b6000600682815481106107c657fe5b90600052602060002090600402019050806002015443116107e757506109e0565b8054604080516370a0823160e01b815230600482015290516000926001600160a01b0316916370a08231916024808301926020929190829003018186803b15801561083157600080fd5b505afa158015610845573d6000803e3d6000fd5b505050506040513d602081101561085b57600080fd5b50519050806108715750436002909101556109e0565b6000610881836002015443610e1e565b905060006108ae60085461070886600101546108a86004548761130590919063ffffffff16565b90611305565b6001546002549192506001600160a01b03908116916340c10f1991166108d584600a61135e565b6040518363ffffffff1660e01b815260040180836001600160a01b0316815260200182815260200192505050600060405180830381600087803b15801561091b57600080fd5b505af115801561092f573d6000803e3d6000fd5b5050600154604080516340c10f1960e01b81523060048201526024810186905290516001600160a01b0390921693506340c10f19925060448082019260009290919082900301818387803b15801561098657600080fd5b505af115801561099a573d6000803e3d6000fd5b505050506109c86109bd8461070864e8d4a510008561130590919063ffffffff16565b6003860154906112a4565b60038501554360028501556109db6115fd565b505050505b50565b6000600682815481106109f257fe5b60009182526020808320858452600782526040808520338087529352909320805460049093029093018054909450610a37926001600160a01b039190911691906115ab565b80546040805191825251849133917fbb757047c2b5f3974fe26b7c10f732e7bce710b0952a71082702781e62ae05959181900360200190a360008082556001909101555050565b610a866112a0565b6001600160a01b0316610a97610e0f565b6001600160a01b031614610ae0576040805162461bcd60e51b81526020600482018190526024820152600080516020611adb833981519152604482015290519081900360640190fd5b6003811115610b2d576040805162461bcd60e51b815260206004820152601460248201527326b0bc1037b31019bc1036bab63a34b83634b2b960611b604482015290519081900360640190fd5b6001811015610b7c576040805162461bcd60e51b815260206004820152601660248201527543616e6e6f74206265206c6f776572207468616e203160501b604482015290519081900360640190fd5b600554811115610bc7576040805162461bcd60e51b815260206004820152601160248201527043616e206f6e6c7920646563726561736560781b604482015290519081900360640190fd5b600555565b60065460005b81811015610beb57610be3816107b7565b600101610bd2565b5050565b610bf76112a0565b6001600160a01b0316610c08610e0f565b6001600160a01b031614610c51576040805162461bcd60e51b81526020600482018190526024820152600080516020611adb833981519152604482015290519081900360640190fd5b8015610c5f57610c5f610bcc565b8160068481548110610c6d57fe5b90600052602060002090600402016001015414610ceb57610cc182610cbb60068681548110610c9857fe5b9060005260206000209060040201600101546008546113c590919063ffffffff16565b906112a4565b6008819055508160068481548110610cd557fe5b9060005260206000209060040201600101819055505b505050565b610cf86112a0565b6001600160a01b0316610d09610e0f565b6001600160a01b031614610d52576040805162461bcd60e51b81526020600482018190526024820152600080516020611adb833981519152604482015290519081900360640190fd5b600080546040516001600160a01b03909116907f8be0079c531659141344cd1fd0a4f28419497f9722a3daafe3b4186f6b6457e0908390a3600080546001600160a01b0319169055565b60055481565b6002546001600160a01b03163314610ded576040805162461bcd60e51b81526020600482015260096024820152686465763a207775743f60b81b604482015290519081900360640190fd5b600280546001600160a01b0319166001600160a01b0392909216919091179055565b6000546001600160a01b031690565b60006003548211610e4157600554610e3a906108a884866113c5565b9050610e87565b6003548310610e5457610e3a82846113c5565b610e3a610e6c600354846113c590919063ffffffff16565b610cbb6005546108a8876003546113c590919063ffffffff16565b92915050565b60076020908152600092835260408084209091529082529020805460019091015482565b610eb96112a0565b6001600160a01b0316610eca610e0f565b6001600160a01b031614610f13576040805162461bcd60e51b81526020600482018190526024820152600080516020611adb833981519152604482015290519081900360640190fd5b600a805460ff19166001179055565b6002546001600160a01b031681565b600060068381548110610f4057fe5b60009182526020808320868452600782526040808520338652909252922060049091029091019150610f71846107b7565b805415610fba576000610fa6826001015461070e64e8d4a510006107088760030154876000015461130590919063ffffffff16565b90508015610fb857610fb83382611422565b505b8154610fd1906001600160a01b031633308661174a565b8054610fdd90846112a4565b8082556003830154610ffa9164e8d4a51000916107089190611305565b6001820155604080518481529051859133917f90890809c654f11d6e72a28fa60149770a0d11ec6c92319d6ceb2bb0a4ea1a159181900360200190a350505050565b6110446112a0565b6001600160a01b0316611055610e0f565b6001600160a01b03161461109e576040805162461bcd60e51b81526020600482018190526024820152600080516020611adb833981519152604482015290519081900360640190fd5b6001600160a01b0381166110e35760405162461bcd60e51b8152600401808060200182810382526026815260200180611a6e6026913960400191505060405180910390fd5b600080546040516001600160a01b03808516939216917f8be0079c531659141344cd1fd0a4f28419497f9722a3daafe3b4186f6b6457e091a3600080546001600160a01b0319166001600160a01b0392909216919091179055565b6000806006848154811061114e57fe5b600091825260208083208784526007825260408085206001600160a01b03898116875290845281862060049586029093016003810154815484516370a0823160e01b81523098810198909852935191985093969395939492909116926370a08231926024808301939192829003018186803b1580156111cc57600080fd5b505afa1580156111e0573d6000803e3d6000fd5b505050506040513d60208110156111f657600080fd5b505160028501549091504311801561120d57508015155b1561126d576000611222856002015443610e1e565b9050600061124960085461070888600101546108a86004548761130590919063ffffffff16565b9050611268611261846107088464e8d4a51000611305565b85906112a4565b935050505b611295836001015461070e64e8d4a5100061070886886000015461130590919063ffffffff16565b979650505050505050565b3390565b6000828201838110156112fe576040805162461bcd60e51b815260206004820152601b60248201527f536166654d6174683a206164646974696f6e206f766572666c6f770000000000604482015290519081900360640190fd5b9392505050565b60008261131457506000610e87565b8282028284828161132157fe5b04146112fe5760405162461bcd60e51b8152600401808060200182810382526021815260200180611aba6021913960400191505060405180910390fd5b60008082116113b4576040805162461bcd60e51b815260206004820152601a60248201527f536166654d6174683a206469766973696f6e206279207a65726f000000000000604482015290519081900360640190fd5b8183816113bd57fe5b049392505050565b60008282111561141c576040805162461bcd60e51b815260206004820152601e60248201527f536166654d6174683a207375627472616374696f6e206f766572666c6f770000604482015290519081900360640190fd5b50900390565b600154604080516370a0823160e01b815230600482015290516000926001600160a01b0316916370a08231916024808301926020929190829003018186803b15801561146d57600080fd5b505afa158015611481573d6000803e3d6000fd5b505050506040513d602081101561149757600080fd5b505190508082111561152b576001546040805163a9059cbb60e01b81526001600160a01b038681166004830152602482018590529151919092169163a9059cbb9160448083019260209291908290030181600087803b1580156114f957600080fd5b505af115801561150d573d6000803e3d6000fd5b505050506040513d602081101561152357600080fd5b50610ceb9050565b6001546040805163a9059cbb60e01b81526001600160a01b038681166004830152602482018690529151919092169163a9059cbb9160448083019260209291908290030181600087803b15801561158157600080fd5b505af1158015611595573d6000803e3d6000fd5b505050506040513d60208110156109db57600080fd5b604080516001600160a01b038416602482015260448082018490528251808303909101815260649091019091526020810180516001600160e01b031663a9059cbb60e01b179052610ceb9084906117aa565b6000600660008154811061160d57fe5b600091825260209182902060049182020154604080516370a0823160e01b81523093810193909352516001600160a01b03909116926370a082319260248082019391829003018186803b15801561166357600080fd5b505afa158015611677573d6000803e3d6000fd5b505050506040513d602081101561168d57600080fd5b5051600a5490915060ff16156116a75760006004556109e0565b69d3c21bcecceda100000081116116c95767034ceb289c7620006004556109e0565b6a0422ca8b0a00a42500000081106116ec576704f360bceab130006004556109e0565b69d3c21bcecceda10000008111801561170f57506a0422ca8b0a00a42500000081105b156109e0576a0422ca8b0a00a4250000006117436325980600610708846108a8600381600f610cbb8987602385838a6113c5565b6004555050565b604080516001600160a01b0380861660248301528416604482015260648082018490528251808303909101815260849091019091526020810180516001600160e01b03166323b872dd60e01b1790526117a49085906117aa565b50505050565b60606117ff826040518060400160405280602081526020017f5361666545524332303a206c6f772d6c6576656c2063616c6c206661696c6564815250856001600160a01b031661185b9092919063ffffffff16565b805190915015610ceb5780806020019051602081101561181e57600080fd5b5051610ceb5760405162461bcd60e51b815260040180806020018281038252602a815260200180611afb602a913960400191505060405180910390fd5b606061186a8484600085611872565b949350505050565b6060824710156118b35760405162461bcd60e51b8152600401808060200182810382526026815260200180611a946026913960400191505060405180910390fd5b6118bc856119c3565b61190d576040805162461bcd60e51b815260206004820152601d60248201527f416464726573733a2063616c6c20746f206e6f6e2d636f6e7472616374000000604482015290519081900360640190fd5b60006060866001600160a01b031685876040518082805190602001908083835b6020831061194c5780518252601f19909201916020918201910161192d565b6001836020036101000a03801982511681845116808217855250505050505090500191505060006040518083038185875af1925050503d80600081146119ae576040519150601f19603f3d011682016040523d82523d6000602084013e6119b3565b606091505b50915091506112958282866119c9565b3b151590565b606083156119d85750816112fe565b8251156119e85782518084602001fd5b8160405162461bcd60e51b81526004018080602001828103825283818151815260200191508051906020019080838360005b83811015611a32578181015183820152602001611a1a565b50505050905090810190601f168015611a5f5780820380516001836020036101000a031916815260200191505b509250505060405180910390fdfe4f776e61626c653a206e6577206f776e657220697320746865207a65726f2061646472657373416464726573733a20696e73756666696369656e742062616c616e636520666f722063616c6c536166654d6174683a206d756c7469706c69636174696f6e206f766572666c6f774f776e61626c653a2063616c6c6572206973206e6f7420746865206f776e65725361666545524332303a204552433230206f7065726174696f6e20646964206e6f742073756363656564a264697066735822122029dada4bae793be54f5e0f536b62a2f9ed50e78f161d928d4207382dd5bea8e764736f6c634300060c0033",
  "devdoc": {
    "kind": "dev",
    "methods": {
      "owner()": {
        "details": "Returns the address of the current owner."
      },
      "renounceOwnership()": {
        "details": "Leaves the contract without owner. It will not be possible to call `onlyOwner` functions anymore. Can only be called by the current owner. NOTE: Renouncing ownership will leave the contract without an owner, thereby removing any functionality that is only available to the owner."
      },
      "transferOwnership(address)": {
        "details": "Transfers ownership of the contract to a new account (`newOwner`). Can only be called by the current owner."
      }
    },
    "version": 1
  },
  "userdoc": {
    "kind": "user",
    "methods": {},
    "version": 1
  },
  "storageLayout": {
    "storage": [
      {
        "astId": 7,
        "contract": "contracts/MasterChef.sol:MasterChef",
        "label": "_owner",
        "offset": 0,
        "slot": "0",
        "type": "t_address"
      },
      {
        "astId": 2101,
        "contract": "contracts/MasterChef.sol:MasterChef",
        "label": "vjin",
        "offset": 0,
        "slot": "1",
        "type": "t_contract(VJinToken)3043"
      },
      {
        "astId": 2103,
        "contract": "contracts/MasterChef.sol:MasterChef",
        "label": "devaddr",
        "offset": 0,
        "slot": "2",
        "type": "t_address"
      },
      {
        "astId": 2105,
        "contract": "contracts/MasterChef.sol:MasterChef",
        "label": "bonusEndBlock",
        "offset": 0,
        "slot": "3",
        "type": "t_uint256"
      },
      {
        "astId": 2107,
        "contract": "contracts/MasterChef.sol:MasterChef",
        "label": "vjinPerBlock",
        "offset": 0,
        "slot": "4",
        "type": "t_uint256"
      },
      {
        "astId": 2110,
        "contract": "contracts/MasterChef.sol:MasterChef",
        "label": "BONUS_MULTIPLIER",
        "offset": 0,
        "slot": "5",
        "type": "t_uint256"
      },
      {
        "astId": 2113,
        "contract": "contracts/MasterChef.sol:MasterChef",
        "label": "poolInfo",
        "offset": 0,
        "slot": "6",
        "type": "t_array(t_struct(PoolInfo)2099_storage)dyn_storage"
      },
      {
        "astId": 2119,
        "contract": "contracts/MasterChef.sol:MasterChef",
        "label": "userInfo",
        "offset": 0,
        "slot": "7",
        "type": "t_mapping(t_uint256,t_mapping(t_address,t_struct(UserInfo)2090_storage))"
      },
      {
        "astId": 2122,
        "contract": "contracts/MasterChef.sol:MasterChef",
        "label": "totalAllocPoint",
        "offset": 0,
        "slot": "8",
        "type": "t_uint256"
      },
      {
        "astId": 2124,
        "contract": "contracts/MasterChef.sol:MasterChef",
        "label": "startBlock",
        "offset": 0,
        "slot": "9",
        "type": "t_uint256"
      },
      {
        "astId": 2126,
        "contract": "contracts/MasterChef.sol:MasterChef",
        "label": "isFinish",
        "offset": 0,
        "slot": "10",
        "type": "t_bool"
      }
    ],
    "types": {
      "t_address": {
        "encoding": "inplace",
        "label": "address",
        "numberOfBytes": "20"
      },
      "t_array(t_struct(PoolInfo)2099_storage)dyn_storage": {
        "base": "t_struct(PoolInfo)2099_storage",
        "encoding": "dynamic_array",
        "label": "struct MasterChef.PoolInfo[]",
        "numberOfBytes": "32"
      },
      "t_bool": {
        "encoding": "inplace",
        "label": "bool",
        "numberOfBytes": "1"
      },
      "t_contract(IERC20)1045": {
        "encoding": "inplace",
        "label": "contract IERC20",
        "numberOfBytes": "20"
      },
      "t_contract(VJinToken)3043": {
        "encoding": "inplace",
        "label": "contract VJinToken",
        "numberOfBytes": "20"
      },
      "t_mapping(t_address,t_struct(UserInfo)2090_storage)": {
        "encoding": "mapping",
        "key": "t_address",
        "label": "mapping(address => struct MasterChef.UserInfo)",
        "numberOfBytes": "32",
        "value": "t_struct(UserInfo)2090_storage"
      },
      "t_mapping(t_uint256,t_mapping(t_address,t_struct(UserInfo)2090_storage))": {
        "encoding": "mapping",
        "key": "t_uint256",
        "label": "mapping(uint256 => mapping(address => struct MasterChef.UserInfo))",
        "numberOfBytes": "32",
        "value": "t_mapping(t_address,t_struct(UserInfo)2090_storage)"
      },
      "t_struct(PoolInfo)2099_storage": {
        "encoding": "inplace",
        "label": "struct MasterChef.PoolInfo",
        "members": [
          {
            "astId": 2092,
            "contract": "contracts/MasterChef.sol:MasterChef",
            "label": "lpToken",
            "offset": 0,
            "slot": "0",
            "type": "t_contract(IERC20)1045"
          },
          {
            "astId": 2094,
            "contract": "contracts/MasterChef.sol:MasterChef",
            "label": "allocPoint",
            "offset": 0,
            "slot": "1",
            "type": "t_uint256"
          },
          {
            "astId": 2096,
            "contract": "contracts/MasterChef.sol:MasterChef",
            "label": "lastRewardBlock",
            "offset": 0,
            "slot": "2",
            "type": "t_uint256"
          },
          {
            "astId": 2098,
            "contract": "contracts/MasterChef.sol:MasterChef",
            "label": "accVJinPerShare",
            "offset": 0,
            "slot": "3",
            "type": "t_uint256"
          }
        ],
        "numberOfBytes": "128"
      },
      "t_struct(UserInfo)2090_storage": {
        "encoding": "inplace",
        "label": "struct MasterChef.UserInfo",
        "members": [
          {
            "astId": 2087,
            "contract": "contracts/MasterChef.sol:MasterChef",
            "label": "amount",
            "offset": 0,
            "slot": "0",
            "type": "t_uint256"
          },
          {
            "astId": 2089,
            "contract": "contracts/MasterChef.sol:MasterChef",
            "label": "rewardDebt",
            "offset": 0,
            "slot": "1",
            "type": "t_uint256"
          }
        ],
        "numberOfBytes": "64"
      },
      "t_uint256": {
        "encoding": "inplace",
        "label": "uint256",
        "numberOfBytes": "32"
      }
    }
  }
}